:020000040000FA
:0400000023EF00F0FA
:060008004A82E2EF08F05D
:100018004A80D8CF13F0E8CF14F0E0CF15F0F2A45F
:1000280006D00001874B882B030ED66EF29415C0BC
:10003800E0FF14C0E8FF13C0D8FF4A90100005EF96
:020048000FF0B7
:1003000000434845434B53554D20494E56414C49B7
:100310004400434845434B53554D2056414C4944B6
:100320000032204952733D3000312049523D3000A7
:10033000494E495400435452003A4D43003A564CFA
:10034000003A56520031617C0031627C003E52001E
:100350003E53003261003262003100320000F20E82
:10036000D36ED3A4FED76EEC0FF059EC0BF04EEC2D
:100370000FF068EC0FF082EC0EF0000E176E640EBA
:10038000166E16EC0FF027EC0FF034EC0FF0000EA9
:10039000396E000E00017E6F000E7F6F790E806F48
:1003A0000F0E816F780E826F0F0E836F000E846FB9
:1003B000000E866FC70E856F000E756F000E766F8C
:1003C000770E776F0F0E786F760E796F0F0E7A6F4C
:1003D000020E7B6F000E7D6FC70E7C6F000E010159
:1003E000016F000E006F000E036F000E026F000E13
:1003F000056F000E046F000E066F280E096F000EC9
:100400000B6F000E0A6F010E086F5E0E076FB70EBE
:100410000D6F980E0C6F000E1E6F000E1F6F000EFA
:100420000001746F34EC0FF0010E9EEC0EF0300EF4
:100430001A6E030E1B6EA3EC0DF0060E00016D6F1D
:10044000130E6C6FAD0EE82EFED76C2FFCD76D2F00
:10045000FAD700D08BD0000E0001896F010E010188
:100460001F6F000E0001886F000E876F000E0101E4
:100470001E6F0CD01E51010D3A0EF324D96E000EE2
:10048000F420DA6E000EDF6E1E2B1E2B0F0E1E6583
:10049000F1D77E0E2D6E000E2E6E750E2F6E000E95
:1004A000306E3DEC0DF034EC0FF0010E9EEC0EF0D2
:1004B000510E1A6E030E1B6EA3EC0DF0060E00011A
:1004C0006D6F130E6C6FAD0EE82EFED76C2FFCD740
:1004D0006D2FFAD700D0000E01011E6F10D01E51F3
:1004E000010D200EF326000EF422000EF324D96E27
:1004F000010EF420DA6E000EDF6E1E2B1E2BDB0EBB
:100500001E65EDD72DD0000E0101016F000E006FAA
:10051000000E036F000E026F010E63EC0EF016C0AA
:1005200000F117C001F1000E63EC0EF016C002F1ED
:1005300017C003F1020E9EEC0EF0000E0001606F7A
:10054000010E616FAEEC0BF0030E00016D6F080E33
:100550006C6F770EE82EFED76C2FFCD76D2FFAD775
:100560003950D8B4D0D73950D8B4FDD73950D8A4E1
:1005700075D271D734EC0FF0010E9EEC0EF04E0EDA
:100580001A6E030E1B6EA3EC0DF0060E00016D6FCC
:10059000130E6C6FAD0EE82EFED76C2FFCD76D2FAF
:1005A000FAD700D0000E0001896F010E01011F6F04
:1005B000000E0001886F000E876F000E01011E6F94
:1005C000CBD034EC0FF0010E9EEC0EF0590E1A6EEB
:1005D000030E1B6EA3EC0DF0010E43EC0EF04DD09C
:1005E000010ED3EC07F01BC000F11CC001F1000E9E
:1005F000D3EC07F01BC002F11CC003F134EC0FF088
:10060000010E9EEC0EF0000E0001606F010E616F96
:10061000AEEC0BF0020E9EEC0EF0450E1A6E030EC1
:100620001B6EA3EC0DF0000E166E010E176E7E0E03
:10063000186E000E196E750E1A6E000E1B6E68ECA9
:1006400008F0000E0001626F010E636F7E0E646F92
:10065000000E656F750E666F000E676F33EC05F068
:10066000020E00016D6F040E6C6FBA0EE82EFED7FD
:100670006C2FFCD76D2FFAD700F001011F05D8A40D
:1006800061D03904D8A45ED0ABD7000E63EC0EF075
:1006900016C000F117C001F1010E63EC0EF016C098
:1006A00002F117C003F134EC0FF0010E9EEC0EF0D6
:1006B000000E0001606F010E616FAEEC0BF0020ED8
:1006C0009EEC0EF0490E1A6E030E1B6EA3EC0DF09D
:1006D000000E166E010E176E7E0E186E000E196E4D
:1006E000750E1A6E000E1B6E68EC08F01EC12DF020
:1006F0002E6A0E0E2F6E010E306EC4EC09F00E0E37
:100700001A6E010E1B6EA3EC0DF0000E0001606F5F
:10071000010E616F7E0E626F000E636F750E646F67
:10072000000E656F85EC06F0050E00016D6F0F0E73
:100730006C6FF10EE82EFED76C2FFCD76D2FFAD719
:1007400001011E2B1F51D8A407D000018951D8A444
:1007500003D03904D8B499D700018951D8A403D063
:100760003904D8B42ED78905D8A478D13904D8A4AF
:1007700075D17E0E2D6E000E2E6E750E2F6E000E34
:10078000306E3DEC0DF0060E00016D6F130E6C6FB8
:10079000AD0EE82EFED76C2FFCD76D2FFAD700D008
:1007A00034EC0FF0010E9EEC0EF05B0E1A6E030E91
:1007B0001B6EA3EC0DF095D034EC0FF0010E9EEC07
:1007C0000EF0530E1A6E030E1B6EA3EC0DF0020E0C
:1007D0009EEC0EF01EC12DF02E6A0E0E2F6E010E35
:1007E000306EC4EC09F00E0E1A6E010E1B6EA3ECF7
:1007F0000DF001011E51010D200EF326000EF42212
:10080000000EF324D96E010EF420DA6EDE04D8A4B3
:1008100013D03D0E1A6E030E1B6EA3EC0DF07E0E70
:100820002D6E000E2E6E750E2F6E000E306E010EA8
:10083000316EF8EC0AF047D001011E51010D200E77
:10084000F326000EF422000EF324D96E010EF420DC
:10085000DA6E020EDE18D8A413D0410E1A6E030E03
:100860001B6EA3EC0DF07E0E2D6E000E2E6E750E1F
:100870002F6E000E306E010E316E97EC0AF023D011
:1008800001011E51010D200EF326000EF422000E70
:10089000F324D96E010EF420DA6E030EDE18D8A40C
:1008A00012D0390E1A6E030E1B6EA3EC0DF07E0EE5
:1008B0002D6E000E2E6E750E2F6E000E306E010E18
:1008C000316E30EC0AF0050E00016D6F0F0E6C6F8B
:1008D000F10EE82EFED76C2FFCD76D2FFAD7010151
:1008E0001E073904D8A404D001011E29D8A464D756
:1008F0007E0E2D6E000E2E6E750E2F6E000E306E5B
:100900003DEC0DF034EC0FF07E0E2D6E000E2E6ED1
:10091000750E2F6E000E306E010E316E30EC0AF047
:10092000050E43EC0EF07E0E2D6E000E2E6E750E33
:100930002F6E000E306E3DEC0DF034EC0FF0010E1A
:100940009EEC0EF0560E1A6E030E1B6EA3EC0DF00D
:10095000010E43EC0EF0000E01011E6F32D01E514D
:10096000010D3A0EF324D96E000EF420DA6E0D0E4E
:10097000DE18D8A402D0010E01D0000E00016D6F68
:1009800001011E51010D3A0EF324D96E000EF42020
:10099000DA6E0A0EDE18D8A402D0010E01D0000EC5
:1009A00000016D11E8A00BD001011E51010D3A0E9E
:1009B000F324D96E000EF420DA6E000EDF6E010112
:1009C0001E2B0D0E1E65CBD73B503A1000016F6FEA
:1009D0003C503D10706F3E503F10716F40504110C1
:1009E000726F42504310736F010E746F0CD07451CC
:1009F000010D6F0EF324D96E000EF420DA6EDF5075
:100A00006F196F6F742B040E7465F1D74450451045
:100A10006F19D8A41AD0010E9EEC0EF0120E1A6EA9
:100A2000030E1B6EA3EC0DF0000E446E000E456E1F
:100A3000020E9EEC0EF03A0E1A6E000E1B6EA3EC28
:100A40000DF03904D8A40AD0FCD7010E9EEC0EF0AC
:100A5000010E1A6E030E1B6EA3EC0DF03904D8A420
:100A600023EF00F087D5000120EE02F06251D92675
:100A70006351DA22DE50DE10D8A426D062C0D9FF3E
:100A800063C0DAFFDE50DE10D8A41ED0210E1A6E2D
:100A9000030E1B6EA3EC0DF064C032F065C033F0A2
:100AA00066C034F067C035F03DEC0CF0010E43EC4D
:100AB0000EF064C02DF065C02EF066C02FF067C048
:100AC00030F03DEC0DF0120062C0D9FF63C0DAFFD8
:100AD000DE50DE10D8B40BD0000120EE02F06251DF
:100AE000D9266351DA22DE50DE10D8A44AD0290E6E
:100AF0001A6E030E1B6EA3EC0DF0000120EE06F043
:100B00006251D9266351DA22DF50D8A41DD064C0C7
:100B100032F065C033F066C034F067C035F03DECAC
:100B20000CF09C0E0001686FD70EE82EFED7682FE0
:100B3000FCD764C02DF065C02EF066C02FF067C0F2
:100B400030F03DEC0DF0120064C032F065C033F0BF
:100B500066C034F067C035F0F7EC0BF09C0E000176
:100B6000686FD70EE82EFED7682FFCD764C02DF033
:100B700065C02EF066C02FF067C030F03DEC0DF080
:100B80001200000120EE07F06251D9266351DA22EB
:100B900010EE04F06251E1266351E222DE50E65C81
:100BA000DE50E658D8B057D062C0D9FF63C0DAFF34
:100BB00010EE0CF06251E1266351E222DE50E65C59
:100BC000DE50E658D8B047D020EE02F06251D92668
:100BD0006351DA2210EE0CF06251E1266351E222F9
:100BE000DE50E65CDE50E658D8B035D0010E9EEC03
:100BF0000EF062C060F063C061F0AEEC0BF064C058
:100C00002DF065C02EF066C02FF067C030F0000EEA
:100C1000316E30EC0AF0020E9EEC0EF0350E1A6EBC
:100C2000030E1B6EA3EC0DF0050E43EC0EF064C03A
:100C30002DF065C02EF066C02FF067C030F03DEC9F
:100C40000DF0000120EE1FF06251D9266351DA2227
:100C5000000EDF6E120020EE06F06251D9266351BD
:100C6000DA22DF50D8A423D03F0E1A6E030E1B6E7B
:100C7000A3EC0DF064C032F065C033F066C034F010
:100C800067C035F03DEC0CF0410E0001686FEE0ED0
:100C9000E82EFED7682FFCD700F064C02DF065C0A9
:100CA0002EF066C02FF067C030F03DEC0DF0000173
:100CB00020EE06F06251D9266351DA22DE04D8A470
:100CC00012004E0E1A6E030E1B6EA3EC0DF064C0E4
:100CD00032F065C033F066C034F067C035F0F7EC31
:100CE0000BF0410E0001686FEE0EE82EFED7682F64
:100CF000FCD700F064C02DF065C02EF066C02FF068
:100D000067C030F03DEC0DF01200000120EE06F05F
:100D10006051D9266151DA22DE04D8A43BD020EEFE
:100D200004F06051D9266151DA2210EE07F06051CB
:100D3000E1266151E222DE50E65CDE50E658D8B092
:100D400029D020EE1EF06051D9266151DA22DF5001
:100D5000666F6651010D200EF326000EF422F3504B
:100D60006025D96EF4506121DA6E010EDF6E3D0E02
:100D70001A6E030E1B6EA3EC0DF062C02DF063C063
:100D80002EF064C02FF065C030F0000E316EF8EC2C
:100D90000AF01200000120EE06F06051D9266151E0
:100DA000DA22DF50D8A43BD020EE04F06051D926DF
:100DB0006151DA2210EE07F06051E1266151E22222
:100DC000DE50E65CDE50E658D8B029D020EE1EF0AA
:100DD0006051D9266151DA22DF50666F6651010DEC
:100DE000200EF326000EF422F3506025D96EF45045
:100DF0006121DA6E020EDF6E410E1A6E030E1B6E5B
:100E0000A3EC0DF062C02DF063C02EF064C02FF093
:100E100065C030F0000E316E97EC0AF01200000150
:100E200020EE1EF06051D9266151DA22DF50666F44
:100E30006651010D200EF326000EF422F3506025BA
:100E4000D96EF4506121DA6E030EDF6E390E1A6E20
:100E5000030E1B6EA3EC0DF062C02DF063C02EF0EC
:100E600064C02FF065C030F0000E316E30EC0AF037
:100E7000120024C0D9FF25C0DAFFDF50266E2650AD
:100E8000166E176A20EE07F02450D9262550DA2274
:100E9000DECF18F0DDCF19F0CEEC0EF016C01CF04E
:100EA00017C01DF0000E1F6E640E1E6E83EC0CF05A
:100EB0001CC02BF01DC02CF020EE01F02450D926D0
:100EC0002550DA22DF50D8B42CD020EE06F0245082
:100ED000D9262550DA22DF50266E010E276E262AEB
:100EE00002D0D8902736262EFCD727508A108A6E3B
:100EF00020EE07F02450D9262550DA22DECF26F046
:100F0000DDCF27F02BC028F02CC029F0281E291E89
:100F1000284A292A265028242B6E275029202C6E57
:100F200014D020EE06F02450D9262550DA22DF50C6
:100F3000266E010E276E262A02D0D8902736262E3E
:100F4000FCD72750FF0A8A148A6E20EE02F0245044
:100F5000D9262550DA22DECF26F0DDCF27F026C0B5
:100F6000D9FF27C0DAFF2B44E846FC0BDF6E20EEEA
:100F700004F02450D9262550DA22DECF26F0DDCF2A
:100F800027F026C0D9FF27C0DAFF2BC028F02CC0DD
:100F900029F0060E2A6E2934293228322A2EFBD750
:100FA0002850DF6E1200256E000E316E000E276E87
:100FB000000E266E010E306E43D0255063EC0EF00D
:100FC0003150020D280EF324D96E000EF420DA6E93
:100FD00016C0DEFF17C0DDFF3150D8B425D0FE0E9D
:100FE0001D6EFF0E1E6E31501F6E206AD8901F3688
:100FF00020361D501F261E502022280E1F24D96E79
:10100000000E2020DA6E3150020D280EF324E16E1E
:10101000000EF420E26EDE50E61804E1DE50E61821
:10102000D8B402D0000E306E030E1E6E8A0E1D6EF6
:10103000560EE82EFED71D2EFCD71E2EFAD7312ACB
:10104000030E3164BAD73004D8A420D03150020D39
:10105000280EF324D96E000EF420DA6EC90EDE5C81
:10106000AF0EDE58D8A00DD03150020D280EF3245B
:10107000D96E000EF420DA6EDECF1BF0DDCF1CF04F
:101080001200000E1C6E000E1B6E1200000E316E60
:1010900017D03150020D280EF324D96E000EF42023
:1010A000DA6EDECF1DF0DDCF1EF0D8901E321D327D
:1010B000D8901E321D321D5026261E502722312A5E
:1010C000030E3164E6D726C01BF027C01CF01200C7
:1010D00016C0D9FF17C0DAFF10EE02F01650E12655
:1010E0001750E222DE50E65CDE50E658D8B02DD034
:1010F00016C0D9FF17C0DAFFDECF1CF0DDCF1DF020
:1011000020EE02F01650D9261750DA22DECF1EF05C
:10111000DDCF1FF01E1E1F1E1E4A1F2A1C501E263A
:101120001D501F2220EE04F01650D9261750DA2247
:101130001EC0DEFF1FC0DDFF20EE06F01650D926D0
:101140001750DA22000EDF6E120020EE02F0165069
:10115000D9261750DA2216C0E1FF17C0E2FFDE5091
:10116000E65CDE50E658D8B0120020EE02F01650D1
:10117000D9261750DA22DECF1CF0DDCF1DF016C0C5
:10118000D9FF17C0DAFFDECF1EF0DDCF1FF01E1E25
:101190001F1E1E4A1F2A1C501E261D501F2220EEF5
:1011A00004F01650D9261750DA221EC0DEFF1FC0E9
:1011B000DDFF20EE06F01650D9261750DA22010E78
:1011C000DF6E1200E1CF09F0E2CF0AF0D9CF0BF0C9
:1011D000DACF0CF0F3CF0DF0F4CF0EF0F6CF0FF026
:1011E000F7CF10F0F8CF11F0F5CF12F09EAA09D08A
:1011F0003A0E016E000E026E55EC09F0010E000170
:10120000896FF2B2F2A23BD0F2A239D03904D8A44D
:1012100019D0000E396E41EC0FF0010EB6EC0EF055
:10122000500E056E030E066ECEEC0DF0080E086E25
:101230001B0E076E270EE82EFED7072EFCD7082EB2
:10124000FAD71BD03950D8A419D0010E396E41EC11
:101250000FF0010EB6EC0EF04D0E056E030E066E8D
:10126000CEEC0DF0080E086E1B0E076E270EE82E52
:10127000FED7072EFCD7082EFAD700F0F29212C044
:10128000F5FF11C0F8FF10C0F7FF0FC0F6FF0EC04A
:10129000F4FF0DC0F3FF0CC0DAFF0BC0D9FF0AC08A
:1012A000E2FF09C0E1FF4A921100000E046E0450F3
:1012B000010DF3500124D96EF4500220DA6E73EC64
:1012C0000FF0DF6E0450010DF3500124D96EF4507D
:1012D0000220DA6E020EDE18D8A44BD00450010DA5
:1012E000F3500124D96EF4500220DA6E000EDF6E46
:1012F0003CD00450010DF3500124D96EF45002206B
:10130000DA6E73EC0FF0DF6E0450010DF350012420
:10131000D96EF4500220DA6E030EDE18D8A410D075
:101320000F0E04600DD00450010DF3500124D96E4E
:10133000F4500220DA6E000EDF6E100E046E14D030
:101340000F0E0418D8A410D00450010DF35001243E
:10135000D96EF4500220DA6E030EDE18D8B404D031
:10136000000E016E000E026E042A0F0E0464C1D737
:1013700012000450010DF3500124D96EF4500220E4
:10138000DA6E000EDF6E1200000E356E0BD0355097
:10139000010DF3502F24D96EF4503020DA6E000E78
:1013A000DF6E352A0F0E3564F2D7000E326E000E56
:1013B000316E000E346E000E336E040E376E000E6A
:1013C000366E3FD02DC026F02EC027F037C01EF05D
:1013D0001F6A000E1D6E0A0E1C6E73EC0DF01CC011
:1013E00028F01DC029F0F9EC0DF026C033F027C01D
:1013F00034F02DC026F02EC027F037C01EF01F6A33
:10140000000E1D6E0A0E1C6E73EC0DF01CC028F051
:101410001DC029F022EC0EF026C031F027C032F0BA
:101420003650010DF3502F24D96EF4503020DA6E6F
:101430003350300FDF6E31C02DF032C02EF0370642
:10144000362A3750D8A4BED73650010DF3502F247A
:10145000D96EF4503020DA6E2D50300FDF6E12004E
:1014600020EE01F02D50D9262E50DA2231C0DFFFB8
:1014700020EE01F02F50D9263050DA2231C0DFFFA4
:101480002FC0D9FF30C0DAFF2DC0E1FF2EC0E2FF30
:10149000DE50E65CD8B009D02DC0D9FF2EC0DAFFEF
:1014A0002FC0E1FF30C0E2FF14D02DC0D9FF2EC005
:1014B000DAFF2FC0E1FF30C0E2FFDE50E65CD8B0BB
:1014C0002ED02FC0D9FF30C0DAFF2DC0E1FF2EC0D3
:1014D000E2FFDFCFE7FF23D02FC0D9FF30C0DAFF14
:1014E0002DC0E1FF2EC0E2FFDFCFE7FF2DC024F0CB
:1014F0002EC025F039EC07F02FC024F030C025F0C5
:1015000039EC07F0060E326E300EE82EFED7322E82
:10151000FCD700D02FC0D9FF30C0DAFFDF2A2FC0A0
:10152000D9FF30C0DAFF590EDF64D6D7120020EEA3
:1015300001F02D50D9262E50DA2231C0DFFF20EEE7
:1015400001F02F50D9263050DA2231C0DFFF2FC0F2
:10155000D9FF30C0DAFF2DC0E1FF2EC0E2FFDFCFA0
:10156000E7FF2DC0D9FF2EC0DAFF5A0EDF6E2FC065
:10157000D9FF30C0DAFF5A0EDF6E19D02DC024F02B
:101580002EC025F039EC07F02FC024F030C025F034
:1015900039EC07F0060E326E300EE82EFED7322EF2
:1015A000FCD700D02DC0D9FF2EC0DAFFDF062DC03A
:1015B000D9FF2EC0DAFFDF50326E336AD30E346E9D
:1015C000FF0E356E2FC0D9FF30C0DAFFDF50366E08
:1015D000376A34503626355037223250365C375011
:1015E000800A386E3350800A3858D8B01200C6D7F7
:1015F00020EE01F02D50D9262E50DA2231C0DFFF27
:1016000020EE01F02F50D9263050DA2231C0DFFF12
:101610002FC0D9FF30C0DAFF2DC0E1FF2EC0E2FF9E
:10162000DFCFE7FF2DC0D9FF2EC0DAFF5A0EDF6EE5
:101630002FC0D9FF30C0DAFF5A0EDF6E19D02DC08F
:1016400024F02EC025F039EC07F02FC024F030C074
:1016500025F039EC07F0060E326E300EE82EFED77C
:10166000322EFCD700D02FC0D9FF30C0DAFFDF0602
:101670002FC0D9FF30C0DAFFDF50326E336AD30E8D
:10168000346EFF0E356E2DC0D9FF2EC0DAFFDF504D
:10169000366E376A34503626355037223250365C33
:1016A0003750800A386E3350800A3858D8B012004C
:1016B000C6D78B908B928B948C908C92899C000EC9
:1016C000946E000E956E000E926E94909492949487
:1016D00095909592929C0A0EE82EFED7030EC5ECCB
:1016E0000CF0030EE82EFED700F0030EC5EC0CF054
:1016F000850EE82EFED700F0030EC5EC0CF0210E8F
:10170000E82EFED700F0020EC5EC0CF0000E186EAD
:10171000280EE1EC0EF0350EE82EFED700F0000E9C
:10172000186E010EE1EC0EF00D0E1A6EFC0EE82E96
:10173000FED71A2EFCD7000E186E060EE1EC0EF046
:10174000350EE82EFED700F0000E186E0E0EE1ECFE
:101750000EF0350EE82EFED700F012003F0E1A6E86
:10176000030E1B6EA3EC0DF060C0D9FF61C0DAFF61
:10177000DECF2DF0DDCF2EF00E0E000160252F6E96
:10178000000E6121306EC4EC09F00E0E00016025E0
:101790001A6E000E61211B6EA3EC0DF0470E1A6E3F
:1017A000030E1B6EA3EC0DF04E0E1A6E030E1B6E95
:1017B000A3EC0DF0000120EE02F06051D92661513A
:1017C000DA22DECF2DF0DDCF2EF00E0E60252F6E4B
:1017D000000E6121306EC4EC09F00E0E0001602590
:1017E0001A6E000E61211B6EA3EC0DF0120032C0C8
:1017F0002DF033C02EF034C02FF035C030F03DEC6A
:101800000DF020EE01F03250D9263350DA22010ECD
:10181000DF6E20EE01F03450D9263550DA22000E6A
:10182000DF6E23D032C0D9FF33C0DAFF34C0E1FF0E
:1018300035C0E2FFDFCFE7FF32C024F033C025F030
:1018400039EC07F034C024F035C025F039EC07F04E
:10185000060E366E300EE82EFED7362EFCD700D0A0
:1018600032C0D9FF33C0DAFFDF2A32C0D9FF33C01C
:10187000DAFF450EDF64D6D7120032C02DF033C038
:101880002EF034C02FF035C030F03DEC0DF020EEDE
:1018900001F03250D9263350DA22000EDF6E20EEEE
:1018A00001F03450D9263550DA22010EDF6E23D0F4
:1018B00032C0D9FF33C0DAFF34C0E1FF35C0E2FFE8
:1018C000DFCFE7FF32C024F033C025F039EC07F05A
:1018D00034C024F035C025F039EC07F0060E366E22
:1018E000300EE82EFED7362EFCD700D032C0D9FFFE
:1018F00033C0DAFFDF2A32C0D9FF33C0DAFF450E2A
:10190000DF64D6D71200000E216E1FAE06D01E6C0B
:101910001F1ED8B01F2A010E216E1DAE06D01C6CF2
:101920001D1ED8B01D2A010E211A000E236E000EB6
:10193000226E1E501F10D8B41CD0010E206E04D091
:10194000D8901E361F36202A1FAEFAD7D8902236DE
:1019500023361E501C5C1F501D58D8A005D01E50A9
:101960001C5E1F501D5A2280D8901F321E32202E1E
:10197000EDD72150D8B404D0226C231ED8B0232A2E
:1019800022C01CF023C01DF01200176E17C016F005
:10199000010E161616468B501618FD0B16188B6E78
:1019A00017C016F0D8901632010E161616461646B7
:1019B0008B501618FB0B16188B6E17C016F0D890AC
:1019C0001632D8901632010E16168C501618FE0BD1
:1019D00016188C6E17C016F0D8901632D8901632A2
:1019E000D8901632010E161616468C501618FD0B9E
:1019F00016188C6E5AEC0FF0030EE82EFED700F08E
:101A00001200026E02C001F0010E011601468B5059
:101A10000118FD0B01188B6E02C001F0D890013245
:101A2000010E0116014601468B500118FB0B0118EF
:101A30008B6E02C001F0D8900132D8900132010EB5
:101A400001168C500118FE0B01188C6E02C001F0BB
:101A5000D8900132D8900132D8900132010E01168F
:101A600001468C500118FD0B01188C6E61EC0FF0D3
:101A7000030EE82EFED700F012002FC0D9FF30C0B1
:101A8000DAFF2DC0E1FF2EC0E2FFDFCFE7FF23D05A
:101A90002FC0D9FF30C0DAFF2DC0E1FF2EC0E2FF1A
:101AA000DFCFE7FF2DC024F02EC025F039EC07F082
:101AB0002FC024F030C025F039EC07F0060E316E4F
:101AC000300EE82EFED7312EFCD700D02FC0D9FF24
:101AD00030C0DAFFDF062FC0D9FF30C0DAFFDF5099
:101AE000D8B41200D5D7010E256E1CC023F01DC03E
:101AF00024F00FD01CC016F01DC017F023C018F042
:101B000024C019F0CEEC0EF016C01CF017C01DF06A
:101B1000252A2550206E216A1E50205C2150800A03
:101B2000226E1F50800A2258D8A0E4D71E501F10E2
:101B3000D8A404D0000E1D6E010E1C6E1CC01CF03B
:101B40001DC01DF0120016D0010E186E1AC0F6FF4F
:101B50001BC0F7FFF86A020EF76403D00800F550C7
:101B600005D0F6CFE1FFF7CFE2FFE750E1EC0EF052
:101B70001A4A1B2A1AC0F6FF1BC0F7FFF86A020EAA
:101B8000F76403D00800F55005D0F6CFE1FFF7CF9A
:101B9000E2FFE7500009D8B41200D6D716D0010EE4
:101BA000036E05C0F6FF06C0F7FFF86A020EF76481
:101BB00003D00800F55005D0F6CFE1FFF7CFE2FFE4
:101BC000E750F3EC0EF0054A062A05C0F6FF06C002
:101BD000F7FFF86A020EF76403D00800F55005D04D
:101BE000F6CFE1FFF7CFE2FFE7500009D8B41200CB
:101BF000D6D7000E2C6E000E2B6E28502910D8B4AC
:101C00001CD0010E2A6E04D0D890283629362A2AF4
:101C100029AEFAD7D8902B362C362850265C29507E
:101C20002758D8A005D02850265E2950275A2B8047
:101C3000D890293228322A2EEDD72BC026F02CC07E
:101C400027F0120028502910D8B418D0010E2A6E9F
:101C500004D0D890283629362A2A29AEFAD7285017
:101C6000265C29502758D8A004D02850265E295039
:101C7000275AD890293228322A2EF1D726C026F0AA
:101C800027C027F01200176E1750140DF3CF18F06D
:101C9000F4CF19F0000E1B6E000E1A6E000E1B6EB4
:101CA000000E1A6E09D0820E166EDE0EE82EFED7DA
:101CB000162EFCD71A4A1B2A18501A5C19501B58AA
:101CC000D8B01200F0D7186E000E1A6E000E196E02
:101CD0001850D8A40AD066CF19F01A6A67501A268D
:101CE00019C016F01AC017F012001804D8A4120078
:101CF00064CF19F01A6A65501A2619C016F01AC076
:101D000017F01200000EB86E000EB66E360E606E42
:101D1000928692886250F00B0609626E6150F00B59
:101D20000609616EB780B750E70B0809B76EB79C1C
:101D3000B79AB79EB7929168906812001A6E1A040B
:101D4000D8A406D0000E186E800EE1EC0EF009D07B
:101D5000020E1A18D8A405D0000E186EC00EE1ECC1
:101D60000EF0210EE82EFED700F01200056E0504DD
:101D7000D8A406D0000E036E800EF3EC0EF009D04E
:101D8000020E0518D8A405D0000E036EC00EF3ECA9
:101D90000EF0210EE82EFED700F0120016501802A9
:101DA000F3CF1AF0F4CF1BF016501902F3501B2694
:101DB00017501802F3501B261AC016F01BC017F05C
:101DC0001200196E18B002D0899C01D0898C193884
:101DD0000F0BC5EC0CF0060EE82EFED700D0195004
:101DE000C5EC0CF01200046E03B002D0899C01D047
:101DF000898C04380F0B01EC0DF0060EE82EFED78F
:101E000000D0045001EC0DF012000001896B886BCA
:101E1000876B00EE39F0110EEE6AE806FDE14A909C
:101E20004A92000EF86E0001AFEF01F09390939488
:101E30008A908A94000E7F6E800E7E6E6F0E6F6E9B
:101E4000000E6E6EC70E7B6E000E7A6E1200F28A66
:101E5000F194D58CD59AD596D550F80B0209D56E4C
:101E6000D58E030ED66E1200000E186E010EE1EC38
:101E70000EF00D0E1A6EFC0EE82EFED71A2EFCD7B1
:101E80001200000E036E010EF3EC0EF00D0E056E47
:101E9000FC0EE82EFED7052EFCD71200948E948CF3
:101EA000CF0EAF6E000EB06EAA86AC84AB88AB8E40
:101EB000AC8A12008B80030EE82EFED700F08B90C8
:101EC00012008B80030EE82EFED700F08B901200DC
:101ED000F28E9D8AF28CF28CD08E1200000E8B6EE8
:0E1EE0009486F28812009EAAFED7AE50120021
:020000040020DA
:08000000FFFFFFFFFFFFFFFF00
:020000040030CA
:0E000000FFC80F3E3C9D85FF0FC00FE00F4074
:00000001FF
